{
  "_format": "hh-sol-artifact-1",
  "contractName": "Wallet",
  "sourceName": "contracts/Wallet.sol",
  "abi": [
    {
      "inputs": [],
      "name": "addBalance",
      "outputs": [],
      "stateMutability": "payable",
      "type": "function"
    },
    {
      "inputs": [
        {
          "internalType": "address",
          "name": "erc20TokenSmartContractAddress",
          "type": "address"
        }
      ],
      "name": "addBalanceERC20",
      "outputs": [],
      "stateMutability": "nonpayable",
      "type": "function"
    },
    {
      "inputs": [
        {
          "internalType": "address",
          "name": "erc20TokenSmartContractAddress",
          "type": "address"
        }
      ],
      "name": "getAllowanceERC20",
      "outputs": [
        {
          "internalType": "uint256",
          "name": "",
          "type": "uint256"
        }
      ],
      "stateMutability": "view",
      "type": "function"
    },
    {
      "inputs": [],
      "name": "getBalance",
      "outputs": [
        {
          "internalType": "uint256",
          "name": "",
          "type": "uint256"
        }
      ],
      "stateMutability": "view",
      "type": "function"
    },
    {
      "inputs": [
        {
          "internalType": "uint256",
          "name": "amount",
          "type": "uint256"
        }
      ],
      "name": "withdraw",
      "outputs": [],
      "stateMutability": "payable",
      "type": "function"
    }
  ],
  "bytecode": "0x6080604052737a250d5630b4cf539739df2c5dacb4c659f2488d6000806101000a81548173ffffffffffffffffffffffffffffffffffffffff021916908373ffffffffffffffffffffffffffffffffffffffff16021790555060008054906101000a900473ffffffffffffffffffffffffffffffffffffffff16600160006101000a81548173ffffffffffffffffffffffffffffffffffffffff021916908373ffffffffffffffffffffffffffffffffffffffff1602179055503480156100c557600080fd5b50610e15806100d56000396000f3fe60806040526004361061004a5760003560e01c806312065fe01461004f5780632e1a7d4d1461007a57806379cbf73d14610096578063b163cc38146100bf578063e252e75b146100c9575b600080fd5b34801561005b57600080fd5b50610064610106565b6040516100719190610b5f565b60405180910390f35b610094600480360381019061008f91906109e1565b61014d565b005b3480156100a257600080fd5b506100bd60048036038101906100b89190610925565b61023f565b005b6100c76106f1565b005b3480156100d557600080fd5b506100f060048036038101906100eb9190610925565b61078d565b6040516100fd9190610b5f565b60405180910390f35b6000600260003373ffffffffffffffffffffffffffffffffffffffff1673ffffffffffffffffffffffffffffffffffffffff16815260200190815260200160002054905090565b80600260003373ffffffffffffffffffffffffffffffffffffffff1673ffffffffffffffffffffffffffffffffffffffff16815260200190815260200160002054101561019957600080fd5b60003390508073ffffffffffffffffffffffffffffffffffffffff166108fc839081150290604051600060405180830381858888f193505050501580156101e4573d6000803e3d6000fd5b5081600260003373ffffffffffffffffffffffffffffffffffffffff1673ffffffffffffffffffffffffffffffffffffffff16815260200190815260200160002060008282546102349190610cc0565b925050819055505050565b600081905060008173ffffffffffffffffffffffffffffffffffffffff1663dd62ed3e33306040518363ffffffff1660e01b8152600401610281929190610ad6565b60206040518083038186803b15801561029957600080fd5b505afa1580156102ad573d6000803e3d6000fd5b505050506040513d601f19601f820116820180604052508101906102d19190610a0a565b90506000839050600080309050600062015180426102ef9190610c6a565b90508573ffffffffffffffffffffffffffffffffffffffff166323b872dd3330886040518463ffffffff1660e01b815260040161032e93929190610aff565b602060405180830381600087803b15801561034857600080fd5b505af115801561035c573d6000803e3d6000fd5b505050506040513d601f19601f8201168201806040525081019061038091906109b8565b508573ffffffffffffffffffffffffffffffffffffffff1663095ea7b360008054906101000a900473ffffffffffffffffffffffffffffffffffffffff16876040518363ffffffff1660e01b81526004016103dc929190610b36565b602060405180830381600087803b1580156103f657600080fd5b505af115801561040a573d6000803e3d6000fd5b505050506040513d601f19601f8201168201806040525081019061042e91906109b8565b506000600267ffffffffffffffff811115610472577f4e487b7100000000000000000000000000000000000000000000000000000000600052604160045260246000fd5b6040519080825280602002602001820160405280156104a05781602001602082028036833780820191505090505b50905084816000815181106104de577f4e487b7100000000000000000000000000000000000000000000000000000000600052603260045260246000fd5b602002602001019073ffffffffffffffffffffffffffffffffffffffff16908173ffffffffffffffffffffffffffffffffffffffff1681525050600160009054906101000a900473ffffffffffffffffffffffffffffffffffffffff1673ffffffffffffffffffffffffffffffffffffffff1663ad5c46486040518163ffffffff1660e01b815260040160206040518083038186803b15801561058057600080fd5b505afa158015610594573d6000803e3d6000fd5b505050506040513d601f19601f820116820180604052508101906105b8919061094e565b816001815181106105f2577f4e487b7100000000000000000000000000000000000000000000000000000000600052603260045260246000fd5b602002602001019073ffffffffffffffffffffffffffffffffffffffff16908173ffffffffffffffffffffffffffffffffffffffff1681525050600160009054906101000a900473ffffffffffffffffffffffffffffffffffffffff1673ffffffffffffffffffffffffffffffffffffffff166318cbafe587868487876040518663ffffffff1660e01b815260040161068f959493929190610b7a565b600060405180830381600087803b1580156106a957600080fd5b505af11580156106bd573d6000803e3d6000fd5b505050506040513d6000823e3d601f19601f820116820180604052508101906106e69190610977565b505050505050505050565b34600260003373ffffffffffffffffffffffffffffffffffffffff1673ffffffffffffffffffffffffffffffffffffffff16815260200190815260200160002060008282546107409190610c6a565b9250508190555042600460003373ffffffffffffffffffffffffffffffffffffffff1673ffffffffffffffffffffffffffffffffffffffff16815260200190815260200160002081905550565b6000808290508073ffffffffffffffffffffffffffffffffffffffff1663dd62ed3e33306040518363ffffffff1660e01b81526004016107ce929190610ad6565b60206040518083038186803b1580156107e657600080fd5b505afa1580156107fa573d6000803e3d6000fd5b505050506040513d601f19601f8201168201806040525081019061081e9190610a0a565b915050919050565b600061083961083484610c05565b610bd4565b9050808382526020820190508285602086028201111561085857600080fd5b60005b85811015610888578161086e8882610910565b84526020840193506020830192505060018101905061085b565b5050509392505050565b6000813590506108a181610d9a565b92915050565b6000815190506108b681610d9a565b92915050565b600082601f8301126108cd57600080fd5b81516108dd848260208601610826565b91505092915050565b6000815190506108f581610db1565b92915050565b60008135905061090a81610dc8565b92915050565b60008151905061091f81610dc8565b92915050565b60006020828403121561093757600080fd5b600061094584828501610892565b91505092915050565b60006020828403121561096057600080fd5b600061096e848285016108a7565b91505092915050565b60006020828403121561098957600080fd5b600082015167ffffffffffffffff8111156109a357600080fd5b6109af848285016108bc565b91505092915050565b6000602082840312156109ca57600080fd5b60006109d8848285016108e6565b91505092915050565b6000602082840312156109f357600080fd5b6000610a01848285016108fb565b91505092915050565b600060208284031215610a1c57600080fd5b6000610a2a84828501610910565b91505092915050565b6000610a3f8383610a4b565b60208301905092915050565b610a5481610cf4565b82525050565b610a6381610cf4565b82525050565b6000610a7482610c41565b610a7e8185610c59565b9350610a8983610c31565b8060005b83811015610aba578151610aa18882610a33565b9750610aac83610c4c565b925050600181019050610a8d565b5085935050505092915050565b610ad081610d32565b82525050565b6000604082019050610aeb6000830185610a5a565b610af86020830184610a5a565b9392505050565b6000606082019050610b146000830186610a5a565b610b216020830185610a5a565b610b2e6040830184610ac7565b949350505050565b6000604082019050610b4b6000830185610a5a565b610b586020830184610ac7565b9392505050565b6000602082019050610b746000830184610ac7565b92915050565b600060a082019050610b8f6000830188610ac7565b610b9c6020830187610ac7565b8181036040830152610bae8186610a69565b9050610bbd6060830185610a5a565b610bca6080830184610ac7565b9695505050505050565b6000604051905081810181811067ffffffffffffffff82111715610bfb57610bfa610d6b565b5b8060405250919050565b600067ffffffffffffffff821115610c2057610c1f610d6b565b5b602082029050602081019050919050565b6000819050602082019050919050565b600081519050919050565b6000602082019050919050565b600082825260208201905092915050565b6000610c7582610d32565b9150610c8083610d32565b9250827fffffffffffffffffffffffffffffffffffffffffffffffffffffffffffffffff03821115610cb557610cb4610d3c565b5b828201905092915050565b6000610ccb82610d32565b9150610cd683610d32565b925082821015610ce957610ce8610d3c565b5b828203905092915050565b6000610cff82610d12565b9050919050565b60008115159050919050565b600073ffffffffffffffffffffffffffffffffffffffff82169050919050565b6000819050919050565b7f4e487b7100000000000000000000000000000000000000000000000000000000600052601160045260246000fd5b7f4e487b7100000000000000000000000000000000000000000000000000000000600052604160045260246000fd5b610da381610cf4565b8114610dae57600080fd5b50565b610dba81610d06565b8114610dc557600080fd5b50565b610dd181610d32565b8114610ddc57600080fd5b5056fea26469706673582212205225453327c76f91f7e46b2d0ecf752c9c9c1cd77d3a01d8076399ca1e26812064736f6c63430008000033",
  "linkReferences": {},
  "deployedLinkReferences": {}
}